{
  "_format": "hh-sol-artifact-1",
  "contractName": "CoinFlip",
  "sourceName": "contracts/Lock.sol",
  "abi": [
    {
      "inputs": [],
      "stateMutability": "nonpayable",
      "type": "constructor"
    },
    {
      "anonymous": false,
      "inputs": [
        {
          "indexed": true,
          "internalType": "address",
          "name": "player",
          "type": "address"
        },
        {
          "indexed": false,
          "internalType": "bool",
          "name": "side",
          "type": "bool"
        },
        {
          "indexed": false,
          "internalType": "bool",
          "name": "win",
          "type": "bool"
        },
        {
          "indexed": false,
          "internalType": "uint256",
          "name": "amount",
          "type": "uint256"
        }
      ],
      "name": "CoinFlipped",
      "type": "event"
    },
    {
      "inputs": [
        {
          "internalType": "bool",
          "name": "side",
          "type": "bool"
        }
      ],
      "name": "flipCoin",
      "outputs": [],
      "stateMutability": "payable",
      "type": "function"
    },
    {
      "inputs": [],
      "name": "fundContract",
      "outputs": [],
      "stateMutability": "payable",
      "type": "function"
    },
    {
      "inputs": [],
      "name": "getContractBalance",
      "outputs": [
        {
          "internalType": "uint256",
          "name": "",
          "type": "uint256"
        }
      ],
      "stateMutability": "view",
      "type": "function"
    },
    {
      "inputs": [],
      "name": "minimumBet",
      "outputs": [
        {
          "internalType": "uint256",
          "name": "",
          "type": "uint256"
        }
      ],
      "stateMutability": "view",
      "type": "function"
    },
    {
      "inputs": [],
      "name": "owner",
      "outputs": [
        {
          "internalType": "address",
          "name": "",
          "type": "address"
        }
      ],
      "stateMutability": "view",
      "type": "function"
    },
    {
      "inputs": [
        {
          "internalType": "uint256",
          "name": "_amount",
          "type": "uint256"
        }
      ],
      "name": "withdraw",
      "outputs": [],
      "stateMutability": "nonpayable",
      "type": "function"
    }
  ],
  "bytecode": "0x608060405267016345785d8a000060015534801561001c57600080fd5b50336000806101000a81548173ffffffffffffffffffffffffffffffffffffffff021916908373ffffffffffffffffffffffffffffffffffffffff160217905550610a5d8061006c6000396000f3fe6080604052600436106100555760003560e01c80632e1a7d4d1461005a5780636f9fb98a146100835780637b8ff38f146100ae5780638da5cb5b146100ca578063bd097e21146100f5578063c38a8afd146100ff575b600080fd5b34801561006657600080fd5b50610081600480360381019061007c91906104f9565b61012a565b005b34801561008f57600080fd5b50610098610265565b6040516100a59190610535565b60405180910390f35b6100c860048036038101906100c39190610588565b61026d565b005b3480156100d657600080fd5b506100df610404565b6040516100ec91906105f6565b60405180910390f35b6100fd610428565b005b34801561010b57600080fd5b506101146104b8565b6040516101219190610535565b60405180910390f35b60008054906101000a900473ffffffffffffffffffffffffffffffffffffffff1673ffffffffffffffffffffffffffffffffffffffff163373ffffffffffffffffffffffffffffffffffffffff16146101b8576040517f08c379a00000000000000000000000000000000000000000000000000000000081526004016101af90610694565b60405180910390fd5b804710156101fb576040517f08c379a00000000000000000000000000000000000000000000000000000000081526004016101f290610726565b60405180910390fd5b60008054906101000a900473ffffffffffffffffffffffffffffffffffffffff1673ffffffffffffffffffffffffffffffffffffffff166108fc829081150290604051600060405180830381858888f19350505050158015610261573d6000803e3d6000fd5b5050565b600047905090565b6001543410156102b2576040517f08c379a00000000000000000000000000000000000000000000000000000000081526004016102a9906107b8565b60405180910390fd5b6002346102bf9190610807565b471015610301576040517f08c379a00000000000000000000000000000000000000000000000000000000081526004016102f8906108bb565b60405180910390fd5b6000600244423360405160200161031a93929190610944565b6040516020818303038152906040528051906020012060001c61033d91906109b0565b9050600082151560008314151514905080156103ad5760006002346103629190610807565b90503373ffffffffffffffffffffffffffffffffffffffff166108fc829081150290604051600060405180830381858888f193505050501580156103aa573d6000803e3d6000fd5b50505b3373ffffffffffffffffffffffffffffffffffffffff167f59a08f6137052b94e704a9613c90dac949bffb1168fde5d465fcbf386d8cdb8e8483346040516103f7939291906109f0565b60405180910390a2505050565b60008054906101000a900473ffffffffffffffffffffffffffffffffffffffff1681565b60008054906101000a900473ffffffffffffffffffffffffffffffffffffffff1673ffffffffffffffffffffffffffffffffffffffff163373ffffffffffffffffffffffffffffffffffffffff16146104b6576040517f08c379a00000000000000000000000000000000000000000000000000000000081526004016104ad90610694565b60405180910390fd5b565b60015481565b600080fd5b6000819050919050565b6104d6816104c3565b81146104e157600080fd5b50565b6000813590506104f3816104cd565b92915050565b60006020828403121561050f5761050e6104be565b5b600061051d848285016104e4565b91505092915050565b61052f816104c3565b82525050565b600060208201905061054a6000830184610526565b92915050565b60008115159050919050565b61056581610550565b811461057057600080fd5b50565b6000813590506105828161055c565b92915050565b60006020828403121561059e5761059d6104be565b5b60006105ac84828501610573565b91505092915050565b600073ffffffffffffffffffffffffffffffffffffffff82169050919050565b60006105e0826105b5565b9050919050565b6105f0816105d5565b82525050565b600060208201905061060b60008301846105e7565b92915050565b600082825260208201905092915050565b7f4f6e6c7920746865206f776e65722063616e2063616c6c20746869732066756e60008201527f6374696f6e2e0000000000000000000000000000000000000000000000000000602082015250565b600061067e602683610611565b915061068982610622565b604082019050919050565b600060208201905081810360008301526106ad81610671565b9050919050565b7f496e73756666696369656e742062616c616e636520696e20636f6e747261637460008201527f2e00000000000000000000000000000000000000000000000000000000000000602082015250565b6000610710602183610611565b915061071b826106b4565b604082019050919050565b6000602082019050818103600083015261073f81610703565b9050919050565b7f42657420616d6f756e74206973206c657373207468616e206d696e696d756d2060008201527f6265742e00000000000000000000000000000000000000000000000000000000602082015250565b60006107a2602483610611565b91506107ad82610746565b604082019050919050565b600060208201905081810360008301526107d181610795565b9050919050565b7f4e487b7100000000000000000000000000000000000000000000000000000000600052601160045260246000fd5b6000610812826104c3565b915061081d836104c3565b925082820261082b816104c3565b91508282048414831517610842576108416107d8565b5b5092915050565b7f496e73756666696369656e742062616c616e636520696e20636f6e747261637460008201527f20746f20636f766572207061796f75742e000000000000000000000000000000602082015250565b60006108a5603183610611565b91506108b082610849565b604082019050919050565b600060208201905081810360008301526108d481610898565b9050919050565b6000819050919050565b6108f66108f1826104c3565b6108db565b82525050565b60008160601b9050919050565b6000610914826108fc565b9050919050565b600061092682610909565b9050919050565b61093e610939826105d5565b61091b565b82525050565b600061095082866108e5565b60208201915061096082856108e5565b602082019150610970828461092d565b601482019150819050949350505050565b7f4e487b7100000000000000000000000000000000000000000000000000000000600052601260045260246000fd5b60006109bb826104c3565b91506109c6836104c3565b9250826109d6576109d5610981565b5b828206905092915050565b6109ea81610550565b82525050565b6000606082019050610a0560008301866109e1565b610a1260208301856109e1565b610a1f6040830184610526565b94935050505056fea2646970667358221220ff159ff6b9e87a615adcb37fe1ce004a862edb16de9d844f0bb95e0cac2928d864736f6c63430008140033",
  "linkReferences": {},
  "deployedLinkReferences": {}
}